{
  "contractName": "Election",
  "abi": [
    {
      "constant": true,
      "inputs": [],
      "name": "candidatesCount",
      "outputs": [
        {
          "name": "",
          "type": "uint256"
        }
      ],
      "payable": false,
      "stateMutability": "view",
      "type": "function"
    },
    {
      "constant": true,
      "inputs": [
        {
          "name": "",
          "type": "uint256"
        }
      ],
      "name": "candidates",
      "outputs": [
        {
          "name": "id",
          "type": "uint256"
        },
        {
          "name": "name",
          "type": "string"
        },
        {
          "name": "voteCount",
          "type": "uint256"
        }
      ],
      "payable": false,
      "stateMutability": "view",
      "type": "function"
    },
    {
      "constant": true,
      "inputs": [
        {
          "name": "",
          "type": "address"
        }
      ],
      "name": "voters",
      "outputs": [
        {
          "name": "",
          "type": "bool"
        }
      ],
      "payable": false,
      "stateMutability": "view",
      "type": "function"
    },
    {
      "inputs": [
        {
          "name": "_passportAddress",
          "type": "address"
        }
      ],
      "payable": false,
      "stateMutability": "nonpayable",
      "type": "constructor"
    },
    {
      "constant": false,
      "inputs": [
        {
          "name": "_name",
          "type": "string"
        }
      ],
      "name": "addCandidate",
      "outputs": [],
      "payable": false,
      "stateMutability": "nonpayable",
      "type": "function"
    },
    {
      "constant": false,
      "inputs": [
        {
          "name": "_candidateId",
          "type": "uint256"
        }
      ],
      "name": "vote",
      "outputs": [],
      "payable": false,
      "stateMutability": "nonpayable",
      "type": "function"
    },
    {
      "constant": false,
      "inputs": [],
      "name": "closeElection",
      "outputs": [],
      "payable": false,
      "stateMutability": "nonpayable",
      "type": "function"
    }
  ],
  "bytecode": "0x608060405234801561001057600080fd5b50604051602080610de08339810180604052810190808051906020019092919050505033600160006101000a81548173ffffffffffffffffffffffffffffffffffffffff021916908373ffffffffffffffffffffffffffffffffffffffff16021790555080600060016101000a81548173ffffffffffffffffffffffffffffffffffffffff021916908373ffffffffffffffffffffffffffffffffffffffff16021790555060016000806101000a81548160ff02191690831515021790555061011c6040805190810160405280600b81526020017f43616e646964617465203100000000000000000000000000000000000000000081525061016f640100000000026401000000009004565b6101696040805190810160405280600b81526020017f43616e646964617465203200000000000000000000000000000000000000000081525061016f640100000000026401000000009004565b50610356565b3373ffffffffffffffffffffffffffffffffffffffff16600160009054906101000a900473ffffffffffffffffffffffffffffffffffffffff1673ffffffffffffffffffffffffffffffffffffffff16141515610234576040517f08c379a000000000000000000000000000000000000000000000000000000000815260040180806020018281038252601e8152602001807f596f7520617265206e6f7420616c6c6f77656420746f20646f2074686973000081525060200191505060405180910390fd5b600360008154809291906001019190505550606060405190810160405280600354815260200182815260200160008152506002600060035481526020019081526020016000206000820151816000015560208201518160010190805190602001906102a09291906102b1565b506040820151816002015590505050565b828054600181600116156101000203166002900490600052602060002090601f016020900481019282601f106102f257805160ff1916838001178555610320565b82800160010185558215610320579182015b8281111561031f578251825591602001919060010190610304565b5b50905061032d9190610331565b5090565b61035391905b8082111561034f576000816000905550600101610337565b5090565b90565b610a7b806103656000396000f300608060405260043610610078576000357c0100000000000000000000000000000000000000000000000000000000900463ffffffff1680630121b93f1461007d5780632d35a8a2146100aa5780633477ee2e146100d5578063462e91ec146101895780636c6c32d0146101f2578063a3ec138d14610209575b600080fd5b34801561008957600080fd5b506100a860048036038101908080359060200190929190505050610264565b005b3480156100b657600080fd5b506100bf61061c565b6040518082815260200191505060405180910390f35b3480156100e157600080fd5b5061010060048036038101908080359060200190929190505050610622565b6040518084815260200180602001838152602001828103825284818151815260200191508051906020019080838360005b8381101561014c578082015181840152602081019050610131565b50505050905090810190601f1680156101795780820380516001836020036101000a031916815260200191505b5094505050505060405180910390f35b34801561019557600080fd5b506101f0600480360381019080803590602001908201803590602001908080601f01602080910402602001604051908101604052809392919081815260200183838082843782019150505050505091929192905050506106e4565b005b3480156101fe57600080fd5b50610207610826565b005b34801561021557600080fd5b5061024a600480360381019080803573ffffffffffffffffffffffffffffffffffffffff16906020019092919050505061098a565b604051808215151515815260200191505060405180910390f35b6000809054906101000a900460ff1615156102e7576040517f08c379a00000000000000000000000000000000000000000000000000000000081526004018080602001828103825260198152602001807f536f7272792c20656c656374696f6e20697320636c6f7365640000000000000081525060200191505060405180910390fd5b6000811180156102f957506003548111155b151561036d576040517f08c379a00000000000000000000000000000000000000000000000000000000081526004018080602001828103825260138152602001807f4e6f742076616c69642063616e6469646174650000000000000000000000000081525060200191505060405180910390fd5b600060019054906101000a900473ffffffffffffffffffffffffffffffffffffffff1673ffffffffffffffffffffffffffffffffffffffff1663f6f19715336040518263ffffffff167c0100000000000000000000000000000000000000000000000000000000028152600401808273ffffffffffffffffffffffffffffffffffffffff1673ffffffffffffffffffffffffffffffffffffffff168152602001915050602060405180830381600087803b15801561042a57600080fd5b505af115801561043e573d6000803e3d6000fd5b505050506040513d602081101561045457600080fd5b810190808051906020019092919050505015156104d9576040517f08c379a000000000000000000000000000000000000000000000000000000000815260040180806020018281038252601c8152602001807f526571756972652070617373706f727420696e666f726d6174696f6e0000000081525060200191505060405180910390fd5b600460003373ffffffffffffffffffffffffffffffffffffffff1673ffffffffffffffffffffffffffffffffffffffff16815260200190815260200160002060009054906101000a900460ff1615151561059b576040517f08c379a000000000000000000000000000000000000000000000000000000000815260040180806020018281038252600d8152602001807f416c726561647920766f7465640000000000000000000000000000000000000081525060200191505060405180910390fd5b6001600460003373ffffffffffffffffffffffffffffffffffffffff1673ffffffffffffffffffffffffffffffffffffffff16815260200190815260200160002060006101000a81548160ff021916908315150217905550600260008281526020019081526020016000206002016000815480929190600101919050555050565b60035481565b6002602052806000526040600020600091509050806000015490806001018054600181600116156101000203166002900480601f0160208091040260200160405190810160405280929190818152602001828054600181600116156101000203166002900480156106d45780601f106106a9576101008083540402835291602001916106d4565b820191906000526020600020905b8154815290600101906020018083116106b757829003601f168201915b5050505050908060020154905083565b3373ffffffffffffffffffffffffffffffffffffffff16600160009054906101000a900473ffffffffffffffffffffffffffffffffffffffff1673ffffffffffffffffffffffffffffffffffffffff161415156107a9576040517f08c379a000000000000000000000000000000000000000000000000000000000815260040180806020018281038252601e8152602001807f596f7520617265206e6f7420616c6c6f77656420746f20646f2074686973000081525060200191505060405180910390fd5b600360008154809291906001019190505550606060405190810160405280600354815260200182815260200160008152506002600060035481526020019081526020016000206000820151816000015560208201518160010190805190602001906108159291906109aa565b506040820151816002015590505050565b3373ffffffffffffffffffffffffffffffffffffffff16600160009054906101000a900473ffffffffffffffffffffffffffffffffffffffff1673ffffffffffffffffffffffffffffffffffffffff161415156108eb576040517f08c379a000000000000000000000000000000000000000000000000000000000815260040180806020018281038252601e8152602001807f596f7520617265206e6f7420616c6c6f77656420746f20646f2074686973000081525060200191505060405180910390fd5b6000809054906101000a900460ff16151561096e576040517f08c379a000000000000000000000000000000000000000000000000000000000815260040180806020018281038252601a8152602001807f456c656374696f6e20697320616c726561647920636c6f73656400000000000081525060200191505060405180910390fd5b60008060006101000a81548160ff021916908315150217905550565b60046020528060005260406000206000915054906101000a900460ff1681565b828054600181600116156101000203166002900490600052602060002090601f016020900481019282601f106109eb57805160ff1916838001178555610a19565b82800160010185558215610a19579182015b82811115610a185782518255916020019190600101906109fd565b5b509050610a269190610a2a565b5090565b610a4c91905b80821115610a48576000816000905550600101610a30565b5090565b905600a165627a7a723058207d5683493e7078294087957b03ecabccdb8efbb4d81f08397001f096c699effa0029",
  "source": "pragma solidity ^0.4.24;\n\ncontract Election {\n\t// Model a Candidate\n    struct Candidate {\n        uint    id;\n        string  name;\n        uint    voteCount;\n    }\n\n    bool electionIsOpen;\n    address passportAddress;\n    address owner;\n\n    // Read/write candidates\n    mapping(uint => Candidate) public candidates;\n    // Store Candidates Count\n    uint public candidatesCount;\n    // Store accounts that have voted\n    mapping(address => bool) public voters;\n\n    constructor (address _passportAddress) public {\n        owner = msg.sender;\n        passportAddress = _passportAddress;\n        electionIsOpen = true;\n        addCandidate(\"Candidate 1\");\n        addCandidate(\"Candidate 2\");\n    }\n\n    function addCandidate (string _name) public {\n        // require owner\n        require (owner == msg.sender, \"You are not allowed to do this\");\n        candidatesCount ++;\n        candidates[candidatesCount] = Candidate(candidatesCount, _name, 0);\n    }\n\n    function vote (uint _candidateId) public {\n        // require open election\n        require(electionIsOpen, \"Sorry, election is closed\");\n        // require a valid candidate\n        require(_candidateId > 0 && _candidateId <= candidatesCount,\n                                              \"Not valid candidate\");\n        // require passport\n        require(Passport(passportAddress).userIsRegistered(msg.sender),\n                                        \"Require passport information\");\n        // require that they haven't voted before\n        require(!voters[msg.sender], \"Already voted\");\n\n        // store that this account is vote\n        voters[msg.sender] = true;\n        // update candidate vote Count\n        candidates[_candidateId].voteCount ++;\n    }\n\n    function closeElection() public {\n        // require owner\n        require (owner == msg.sender, \"You are not allowed to do this\");\n        require (electionIsOpen, \"Election is already closed\");\n        electionIsOpen = false;\n    }\n}\n\ncontract Passport {\n    function userIsRegistered (address userAddress) public view returns (bool);\n}\n",
  "sourcePath": "/Users/dtelega/dev/dapp_init/contracts/Election.sol",
  "compiler": {
    "name": "solc",
    "version": "0.4.24+commit.e67f0147.Emscripten.clang"
  },
  "schemaVersion": "2.0.1",
  "updatedAt": "2018-12-19T12:49:47.627Z"
}