{
  "contractName": "Passport",
  "abi": [
    {
      "constant": true,
      "inputs": [],
      "name": "usersCount",
      "outputs": [
        {
          "name": "",
          "type": "uint256"
        }
      ],
      "payable": false,
      "stateMutability": "view",
      "type": "function"
    },
    {
      "constant": true,
      "inputs": [
        {
          "name": "",
          "type": "address"
        }
      ],
      "name": "users",
      "outputs": [
        {
          "name": "uid",
          "type": "address"
        },
        {
          "name": "firstName",
          "type": "string"
        },
        {
          "name": "lastName",
          "type": "string"
        },
        {
          "name": "age",
          "type": "uint256"
        }
      ],
      "payable": false,
      "stateMutability": "view",
      "type": "function"
    },
    {
      "inputs": [],
      "payable": false,
      "stateMutability": "nonpayable",
      "type": "constructor"
    },
    {
      "constant": false,
      "inputs": [
        {
          "name": "_firstName",
          "type": "string"
        },
        {
          "name": "_lastName",
          "type": "string"
        },
        {
          "name": "_age",
          "type": "uint256"
        }
      ],
      "name": "registration",
      "outputs": [],
      "payable": false,
      "stateMutability": "nonpayable",
      "type": "function"
    }
  ],
  "bytecode": "0x608060405234801561001057600080fd5b506100966040805190810160405280600481526020017f4976616e000000000000000000000000000000000000000000000000000000008152506040805190810160405280600681526020017f4976616e6f760000000000000000000000000000000000000000000000000000815250601261009b640100000000026401000000009004565b6102d4565b60128110151515610114576040517f08c379a000000000000000000000000000000000000000000000000000000000815260040180806020018281038252600e8152602001807f3c203138207965617273206f6c6400000000000000000000000000000000000081525060200191505060405180910390fd5b6001600081548092919060010191905055506080604051908101604052803373ffffffffffffffffffffffffffffffffffffffff168152602001848152602001838152602001828152506000803373ffffffffffffffffffffffffffffffffffffffff1673ffffffffffffffffffffffffffffffffffffffff16815260200190815260200160002060008201518160000160006101000a81548173ffffffffffffffffffffffffffffffffffffffff021916908373ffffffffffffffffffffffffffffffffffffffff16021790555060208201518160010190805190602001906101ff92919061022f565b50604082015181600201908051906020019061021c92919061022f565b5060608201518160030155905050505050565b828054600181600116156101000203166002900490600052602060002090601f016020900481019282601f1061027057805160ff191683800117855561029e565b8280016001018555821561029e579182015b8281111561029d578251825591602001919060010190610282565b5b5090506102ab91906102af565b5090565b6102d191905b808211156102cd5760008160009055506001016102b5565b5090565b90565b61068d806102e36000396000f300608060405260043610610057576000357c0100000000000000000000000000000000000000000000000000000000900463ffffffff1680636ba13a821461005c578063a87430ba14610087578063fcfac6cd146101e9575b600080fd5b34801561006857600080fd5b506100716102a2565b6040518082815260200191505060405180910390f35b34801561009357600080fd5b506100c8600480360381019080803573ffffffffffffffffffffffffffffffffffffffff1690602001909291905050506102a8565b604051808573ffffffffffffffffffffffffffffffffffffffff1673ffffffffffffffffffffffffffffffffffffffff1681526020018060200180602001848152602001838103835286818151815260200191508051906020019080838360005b83811015610144578082015181840152602081019050610129565b50505050905090810190601f1680156101715780820380516001836020036101000a031916815260200191505b50838103825285818151815260200191508051906020019080838360005b838110156101aa57808201518184015260208101905061018f565b50505050905090810190601f1680156101d75780820380516001836020036101000a031916815260200191505b50965050505050505060405180910390f35b3480156101f557600080fd5b506102a0600480360381019080803590602001908201803590602001908080601f0160208091040260200160405190810160405280939291908181526020018383808284378201915050505050509192919290803590602001908201803590602001908080601f016020809104026020016040519081016040528093929190818152602001838380828437820191505050505050919291929080359060200190929190505050610428565b005b60015481565b60006020528060005260406000206000915090508060000160009054906101000a900473ffffffffffffffffffffffffffffffffffffffff1690806001018054600181600116156101000203166002900480601f01602080910402602001604051908101604052809291908181526020018280546001816001161561010002031660029004801561037a5780601f1061034f5761010080835404028352916020019161037a565b820191906000526020600020905b81548152906001019060200180831161035d57829003601f168201915b505050505090806002018054600181600116156101000203166002900480601f0160208091040260200160405190810160405280929190818152602001828054600181600116156101000203166002900480156104185780601f106103ed57610100808354040283529160200191610418565b820191906000526020600020905b8154815290600101906020018083116103fb57829003601f168201915b5050505050908060030154905084565b601281101515156104a1576040517f08c379a000000000000000000000000000000000000000000000000000000000815260040180806020018281038252600e8152602001807f3c203138207965617273206f6c6400000000000000000000000000000000000081525060200191505060405180910390fd5b6001600081548092919060010191905055506080604051908101604052803373ffffffffffffffffffffffffffffffffffffffff168152602001848152602001838152602001828152506000803373ffffffffffffffffffffffffffffffffffffffff1673ffffffffffffffffffffffffffffffffffffffff16815260200190815260200160002060008201518160000160006101000a81548173ffffffffffffffffffffffffffffffffffffffff021916908373ffffffffffffffffffffffffffffffffffffffff160217905550602082015181600101908051906020019061058c9291906105bc565b5060408201518160020190805190602001906105a99291906105bc565b5060608201518160030155905050505050565b828054600181600116156101000203166002900490600052602060002090601f016020900481019282601f106105fd57805160ff191683800117855561062b565b8280016001018555821561062b579182015b8281111561062a57825182559160200191906001019061060f565b5b509050610638919061063c565b5090565b61065e91905b8082111561065a576000816000905550600101610642565b5090565b905600a165627a7a72305820e2ef78d290884d269c8882e7d56e230b98f7e640117d71791c9029e1bf2cc87e0029",
  "source": "pragma solidity ^0.4.24;\n\ncontract Passport {\n\n\tstruct\tUser {\n\t\taddress\tuid;\n\t\tstring\tfirstName;\n\t\tstring\tlastName;\n\t\tuint\tage;\n\t}\n\n\t// store all users\n\tmapping(address => User) public users;\n\n\t// store users count\n\tuint public usersCount;\n\n\tconstructor () public {\n\t\tregistration(\"Ivan\", \"Ivanov\", 18);\n\t}\n\n\tfunction\tregistration (string _firstName, string _lastName, uint _age) public {\n\t\t\n\t\t// require a valid user\n\t\trequire(_age >= 18, \"< 18 years old\");\n\n\t\tusersCount++;\n\t\tusers[msg.sender] = User(msg.sender, _firstName, _lastName, _age);\n\t}\n}",
  "sourcePath": "/Users/dtelega/dev/dapp_init/contracts/Passport.sol",
  "compiler": {
    "name": "solc",
    "version": "0.4.24+commit.e67f0147.Emscripten.clang"
  },
  "schemaVersion": "2.0.1",
  "updatedAt": "2018-12-16T13:03:46.912Z"
}