{
  "contractName": "Passport",
  "abi": [
    {
      "constant": true,
      "inputs": [],
      "name": "usersCount",
      "outputs": [
        {
          "name": "",
          "type": "uint256"
        }
      ],
      "payable": false,
      "stateMutability": "view",
      "type": "function"
    },
    {
      "constant": true,
      "inputs": [
        {
          "name": "",
          "type": "address"
        }
      ],
      "name": "users",
      "outputs": [
        {
          "name": "uid",
          "type": "address"
        },
        {
          "name": "firstName",
          "type": "string"
        },
        {
          "name": "lastName",
          "type": "string"
        },
        {
          "name": "age",
          "type": "uint256"
        }
      ],
      "payable": false,
      "stateMutability": "view",
      "type": "function"
    },
    {
      "inputs": [],
      "payable": false,
      "stateMutability": "nonpayable",
      "type": "constructor"
    },
    {
      "constant": false,
      "inputs": [
        {
          "name": "_firstName",
          "type": "string"
        },
        {
          "name": "_lastName",
          "type": "string"
        },
        {
          "name": "_age",
          "type": "uint256"
        }
      ],
      "name": "registration",
      "outputs": [],
      "payable": false,
      "stateMutability": "nonpayable",
      "type": "function"
    },
    {
      "constant": true,
      "inputs": [
        {
          "name": "userAddress",
          "type": "address"
        }
      ],
      "name": "userIsRegistered",
      "outputs": [
        {
          "name": "",
          "type": "bool"
        }
      ],
      "payable": false,
      "stateMutability": "view",
      "type": "function"
    }
  ],
  "bytecode": "0x608060405234801561001057600080fd5b506100966040805190810160405280600481526020017f4976616e000000000000000000000000000000000000000000000000000000008152506040805190810160405280600681526020017f4976616e6f760000000000000000000000000000000000000000000000000000815250601261009b640100000000026401000000009004565b61038d565b60128110151515610114576040517f08c379a000000000000000000000000000000000000000000000000000000000815260040180806020018281038252600e8152602001807f3c203138207965617273206f6c6400000000000000000000000000000000000081525060200191505060405180910390fd5b60008060003373ffffffffffffffffffffffffffffffffffffffff1673ffffffffffffffffffffffffffffffffffffffff168152602001908152602001600020600301541415156101cd576040517f08c379a00000000000000000000000000000000000000000000000000000000081526004018080602001828103825260128152602001807f416c72656164792072656769737465726564000000000000000000000000000081525060200191505060405180910390fd5b6001600081548092919060010191905055506080604051908101604052803373ffffffffffffffffffffffffffffffffffffffff168152602001848152602001838152602001828152506000803373ffffffffffffffffffffffffffffffffffffffff1673ffffffffffffffffffffffffffffffffffffffff16815260200190815260200160002060008201518160000160006101000a81548173ffffffffffffffffffffffffffffffffffffffff021916908373ffffffffffffffffffffffffffffffffffffffff16021790555060208201518160010190805190602001906102b89291906102e8565b5060408201518160020190805190602001906102d59291906102e8565b5060608201518160030155905050505050565b828054600181600116156101000203166002900490600052602060002090601f016020900481019282601f1061032957805160ff1916838001178555610357565b82800160010185558215610357579182015b8281111561035657825182559160200191906001019061033b565b5b5090506103649190610368565b5090565b61038a91905b8082111561038657600081600090555060010161036e565b5090565b90565b6107fa8061039c6000396000f300608060405260043610610062576000357c0100000000000000000000000000000000000000000000000000000000900463ffffffff1680636ba13a8214610067578063a87430ba14610092578063f6f19715146101f4578063fcfac6cd1461024f575b600080fd5b34801561007357600080fd5b5061007c610308565b6040518082815260200191505060405180910390f35b34801561009e57600080fd5b506100d3600480360381019080803573ffffffffffffffffffffffffffffffffffffffff16906020019092919050505061030e565b604051808573ffffffffffffffffffffffffffffffffffffffff1673ffffffffffffffffffffffffffffffffffffffff1681526020018060200180602001848152602001838103835286818151815260200191508051906020019080838360005b8381101561014f578082015181840152602081019050610134565b50505050905090810190601f16801561017c5780820380516001836020036101000a031916815260200191505b50838103825285818151815260200191508051906020019080838360005b838110156101b557808201518184015260208101905061019a565b50505050905090810190601f1680156101e25780820380516001836020036101000a031916815260200191505b50965050505050505060405180910390f35b34801561020057600080fd5b50610235600480360381019080803573ffffffffffffffffffffffffffffffffffffffff16906020019092919050505061048e565b604051808215151515815260200191505060405180910390f35b34801561025b57600080fd5b50610306600480360381019080803590602001908201803590602001908080601f0160208091040260200160405190810160405280939291908181526020018383808284378201915050505050509192919290803590602001908201803590602001908080601f0160208091040260200160405190810160405280939291908181526020018383808284378201915050505050509192919290803590602001909291905050506104dc565b005b60015481565b60006020528060005260406000206000915090508060000160009054906101000a900473ffffffffffffffffffffffffffffffffffffffff1690806001018054600181600116156101000203166002900480601f0160208091040260200160405190810160405280929190818152602001828054600181600116156101000203166002900480156103e05780601f106103b5576101008083540402835291602001916103e0565b820191906000526020600020905b8154815290600101906020018083116103c357829003601f168201915b505050505090806002018054600181600116156101000203166002900480601f01602080910402602001604051908101604052809291908181526020018280546001816001161561010002031660029004801561047e5780601f106104535761010080835404028352916020019161047e565b820191906000526020600020905b81548152906001019060200180831161046157829003601f168201915b5050505050908060030154905084565b6000806000808473ffffffffffffffffffffffffffffffffffffffff1673ffffffffffffffffffffffffffffffffffffffff1681526020019081526020016000206003015414159050919050565b60128110151515610555576040517f08c379a000000000000000000000000000000000000000000000000000000000815260040180806020018281038252600e8152602001807f3c203138207965617273206f6c6400000000000000000000000000000000000081525060200191505060405180910390fd5b60008060003373ffffffffffffffffffffffffffffffffffffffff1673ffffffffffffffffffffffffffffffffffffffff1681526020019081526020016000206003015414151561060e576040517f08c379a00000000000000000000000000000000000000000000000000000000081526004018080602001828103825260128152602001807f416c72656164792072656769737465726564000000000000000000000000000081525060200191505060405180910390fd5b6001600081548092919060010191905055506080604051908101604052803373ffffffffffffffffffffffffffffffffffffffff168152602001848152602001838152602001828152506000803373ffffffffffffffffffffffffffffffffffffffff1673ffffffffffffffffffffffffffffffffffffffff16815260200190815260200160002060008201518160000160006101000a81548173ffffffffffffffffffffffffffffffffffffffff021916908373ffffffffffffffffffffffffffffffffffffffff16021790555060208201518160010190805190602001906106f9929190610729565b506040820151816002019080519060200190610716929190610729565b5060608201518160030155905050505050565b828054600181600116156101000203166002900490600052602060002090601f016020900481019282601f1061076a57805160ff1916838001178555610798565b82800160010185558215610798579182015b8281111561079757825182559160200191906001019061077c565b5b5090506107a591906107a9565b5090565b6107cb91905b808211156107c75760008160009055506001016107af565b5090565b905600a165627a7a72305820220fc1621692289858727558541e64ddecea8cc3e7253ec2a3911a4d8d5da9220029",
  "source": "pragma solidity ^0.4.24;\n\ncontract Passport {\n\n\t// user's model\n\tstruct\tUser {\n\t\taddress\tuid;\n\t\tstring\tfirstName;\n\t\tstring\tlastName;\n\t\tuint\tage;\n\t}\n\n\t// store all users\n\tmapping(address => User) public users;\n\t// store users count\n\tuint public usersCount;\n\n\tconstructor () public {\n\t\t//TODO: for test, delete later\n\t\tregistration(\"Ivan\", \"Ivanov\", 18);\n\t}\n\n\tfunction\tregistration (string _firstName, string _lastName,\n\t\t\t\t\t\t\t\t\t\t\t\t\tuint _age) public {\n\t\t// require a valid user\n\t\trequire(_age >= 18, \"< 18 years old\");\n\t\t// require non registered user\n\t\trequire(users[msg.sender].age == 0, \"Already registered\");\n\n\t\tusersCount++;\n\t\tusers[msg.sender] = User(msg.sender, _firstName, _lastName, _age);\n\t}\n\n\tfunction userIsRegistered (address userAddress) public view returns (bool) {\n\t\treturn users[userAddress].age != 0;\n\t}\n}\n",
  "sourcePath": "/Users/dtelega/dev/dapp_init/contracts/Passport.sol",
  "compiler": {
    "name": "solc",
    "version": "0.4.24+commit.e67f0147.Emscripten.clang"
  },
  "schemaVersion": "2.0.1",
  "updatedAt": "2018-12-19T12:49:47.628Z"
}